:020000040800F2
:100000001004002001010008410A0008BD01000899
:10001000350900086D010008DD0C00080000000033
:10002000000000000000000000000000450A000879
:10003000A101000800000000430A0008F10B0008BD
:100040001B0100081B0100081B0100081B01000820
:100050001B0100081B0100081B0100081B01000810
:100060001B0100081B0100081B01000871010008AA
:100070001B0100081B0100081B0100081B010008F0
:100080001B0100081B0100081B0100081B010008E0
:100090001B0100081B0100081B0100081B010008D0
:1000A0001B0100081B0100081B0100081B010008C0
:1000B0001B0100081B0100081B0100081B010008B0
:1000C0001B0100081B0100081B0100081B010008A0
:1000D0001B0100081B0100081B0100081B01000890
:1000E0001B0100081B0100081B010008DFF80CD0F1
:1000F00000F02AF800480047FD0C0008100400201A
:100100000648804706480047FEE7FEE7FEE7FEE7B1
:10011000FEE7FEE7FEE7FEE7FEE7FEE7950C0008D8
:10012000ED000008D2B201E000F8012B491EFBD21D
:1001300070470022F6E710B513460A4604461946F2
:10014000FFF7F0FF204610BD064C074D06E0E068C3
:1001500040F0010394E8070098471034AC42F6D30E
:10016000FFF7C8FF500E0008700E0008FEE7000001
:100170000A480168C1F3400109B1022141600168E8
:10018000C1F3800109B1042141600168C1F3C001DC
:10019000002901D0082141607047000000000240A2
:1001A00070470000034800680349C0F3C2000870AC
:1001B00070470000080C014000000020FEE700002E
:1001C0000D4B10B59B6800220C4C03F00103A46892
:1001D00004F00104234302D00122104610BD096837
:1001E00029B1436823F470230B434360F5E741686A
:1001F00021F470214160F0E7002401400028014013
:1002000010B58368002213F0010F02D001221046BE
:1002100010BD43684C6823F48073234343608368B4
:10022000096823F400630B438360F0E770B54B6803
:100230008468002214F0010F02D00122104670BD24
:1002400033B18C682343446824F46844234302E0B8
:10025000436823F468434360CC680B688568234394
:100260000C69064E35402C43234383604968C36ABA
:1002700023F470030B43C362E0E70000FDFEF1FFCF
:10028000044908B58A6902438A618969014000917D
:1002900008BD000000100240F0B50A68C2F30F2547
:1002A00095FAA5F2B2FA82F369E001229A402A4255
:1002B00064D0082B03D240F201129A4006E0A3F169
:1002C00008024FF00114944044F0806292FAA2F7C1
:1002D00000EB1264B7FA87F74FEA870C0F272668FE
:1002E00007FA0CF7BE4392FAA2F7D1F804E0B7FA86
:1002F00087F7BF000EFA07FE46EA0E0626600E6973
:10030000C7684FEA122C9CFAACFCBCFA8CFC27EABA
:10031000122706FA0CF63743C7604E68012E01D04B
:10032000092E2BD192FAA2F7B7FA87F74FEA870C7A
:10033000032707FA0CF72668D1F808E0BE4392FAC3
:10034000A2F7B7FA87F7BF000EFA07FE92FAA2FCEF
:1003500046EA0E06BCFA8CFC4FEA8C0E4FF0040CF9
:1003600026600CFA0EFC92FAA2F2B2FA82F2CF6880
:10037000920026EA0C0697403E4326605B1C35FA45
:1003800003F292D10020F0BD4FF47A71B0FBF1F18D
:100390004FF0E020491E416100218161052101618A
:1003A0007047000001490860704700000C00002001
:1003B0000A7B8B681A434B6822F480621A430B68ED
:1003C00022F400621A43CB8922F480521A430B694B
:1003D00022F400521A434B6922F480421A4322F459
:1003E000004119434164002070470000F0B50268E5
:1003F000154B164C164D4FF08046984205D0B04232
:1004000003D0A04201D0A84203D14F6822F070026D
:100410003A43984205D0B04203D0A04201D0A8424E
:1004200003D1CC6822F44072224302608A68C2621F
:100430000A888262984201D1097C0163416941F0D6
:10044000010141610020F0BD002C0140000400408A
:1004500000080040012919D0042919D0102919D009
:10046000402919D0B1F5807F18D0B1F5806F17D031
:1004700006210C4A1830525C10440268094BDB1DFF
:100480005B5C042199408A43026070470021F0E7D9
:100490000121EEE70221ECE70321EAE70421E8E786
:1004A0000521E6E7400E0008012919D0042919D0DA
:1004B000102919D0402919D0B1F5807F18D0B1F595
:1004C000806F17D006210C4A1830525C1044026825
:1004D000094BDB1D5B5C082199400A4302607047B1
:1004E0000021F0E70121EEE70221ECE70321EAE732
:1004F0000421E8E70521E6E7400E0008F0B50125F4
:100500000023604C012908D0102933D0B1F5807F39
:1005100064D0B1F5805F5FD190E0016A21F0010104
:100520000162016A45688669176826F073063E43D2
:10053000176921F002013943576821F0010139435D
:10054000A04212D1546921F0080141EA8401946863
:1005500021F0040141EA840125F4807495692C435B
:10056000D56924F4007444EA450545608661D26883
:1005700042632FE0016A21F010010162016A4568BF
:100580008669176826F4E64646EA0726176921F0C9
:10059000200141EA0711576821F0100141EA0711D3
:1005A000A04213D1546921F0800141EA841194687A
:1005B00021F0400141EA841125F48064956944EA00
:1005C0008504D56924F4006444EAC5054560866164
:1005D000D268826301621D462846F0BD016A21F49B
:1005E00080710162016A4568C669176826F0730662
:1005F0003E43176921F4007141EA0721576821F44D
:10060000807141EA0721A04213D1546921F40061AD
:1006100041EA8421946821F4806141EA842125F42F
:100620008054956944EA0514D56924F4005444EAD9
:1006300045154560C661D268C263CBE7016A21F403
:1006400080510162056A4168C669176826F4E6466A
:1006500046EA0726176925F4005545EA0735576825
:1006600025F4805545EA0735A04204D1946921F468
:10067000804141EA84114160C661D168016405622C
:10068000A9E70000002C0140F0B58FB000240B94C6
:100690000C94142101A80D94FFF74BFD142106A81A
:1006A000FFF747FD4FF400752846FFF7E9FD0420EA
:1006B000FFF7E6FD40F20110CDE9060406A93D482A
:1006C000FFF7EAFD3D4A3C49104612788A5844F249
:1006D00010039A430378CA5002788A58037822F4A8
:1006E0004052CA5002788A58037842F02002CA5019
:1006F00002788A58037822F04002CA5002788A5859
:10070000037842F08002CA5002788E158A58037826
:1007100022F4407242F48072CA5002788A580078FB
:1007200022F4406242F480620A50254F0B940BA9D8
:1007300038460C94FFF764FD0DA938460D94FFF779
:100740003FFD4FF46020CDE9010402200596CDE97C
:10075000034001A93846FFF769FD4FF4407191FA53
:10076000A1F12804B1FA81F1CD4007EB8501CA6AF5
:1007700022F01F02CA6290FAA0F1B1FA81F1C840DA
:1007800007EB8000C1684FF0F87292FAA2F3B3FA57
:1007900083F324FA03F307259D4092FAA2F2B2FAFA
:1007A00082F224FA02F2A94394402143C1600FB0BF
:1007B000F0BD00000008014000000240390E0008B2
:1007C00000240140104808B5416941F00101416130
:1007D000406900F0010000900C480068C0F302205E
:1007E000011D072901D2002000E0C01E0021814028
:1007F0000801074981F800044FF0E0214FF4006040
:10080000C1F8000108BD0000001002400CED00E03E
:100810000BE000E070B598B014210EA8FFF789FC3A
:1008200020216846FFF785FC182108A8FFF781FC06
:10083000142113A8FFF77DFC4FF40060FFF720FDA3
:100840000C20ADF83800002440F2FF10CDE90F4035
:10085000354D11948DF848400EA92846FFF7C6FD86
:10086000286840F080002860A86844F207018843A7
:10087000A86001212846FFF717FE6020CDE900049B
:10088000029403940494059406946A460121284630
:100890000794FFF733FE01212846FFF7DBFD102107
:1008A0002846FFF701FE01946A461021284602946B
:1008B000FFF724FE10212846FFF7CCFDAE15314688
:1008C0002846FFF7F1FD01946A4631462846029416
:1008D000FFF714FE31462846FFF7BCFD686820F09C
:1008E00070006860A86820F08000A8600894681410
:1008F000CDE90C048DF82C4009940A94ADF82E40F3
:1009000008A92846FFF754FD0420FFF7B9FC074863
:100910001390092014900220CDE9150413A904486E
:10092000FFF7BAFC18B070BD002C014007000704A7
:1009300000080140FEE7000000B5FFF733FC104B54
:1009400040F62A0118705888884205D9A0F5006041
:10095000C0F38F0001220BE0B0F5FA6F06D2A0F2CF
:10096000FF704042C0F38F00022201E000200246E7
:1009700000F034F9187811465DF804EB00F064B823
:100980000000002070B52948016841F001010160B4
:10099000416C41F4804141642649254A0846097862
:1009A0005158037821F00101D150022151600421F6
:1009B0005160082151600378111D5B5804786FF372
:1009C0000F0343F0010363501B4C194E4C34057860
:1009D00008361949194BAC510578341D2B51037851
:1009E000D358047843F0020313510378D3580478A2
:1009F00043F0080313510378D358007843F0010300
:100A00001350886840F0010088602020401EFDD10E
:100A1000886840F0040088608868C0F3800000287F
:100A2000FAD1886840F4A000886070BD002C0140B5
:100A300000000240D20D0008002401400200002006
:100A40007047704770470000F0B5604A604B54141F
:100A500065004FF4004E002973D05E4E00EB400756
:100A6000012912D002295BD15B49002001EB470C20
:100A7000315C1CF800708F4273D077B3062870D2B7
:100A8000DFE800F0707D747F7881534900203039B1
:100A900001EB470C315C1CF800708F423BD037B142
:100AA000062838D2DFE800F0243128332C35062818
:100AB00018D2DFE800F0031007130C15116A21F0BB
:100AC000010102E0116A21F0100111620AE0116ACD
:100AD00021F48071F9E75C6104E022E05D6101E0EE
:100AE000C3F814E00021491C89B20C29FBD912E09B
:100AF000116A41F0010106E0116A41F0100102E0C3
:100B0000116A41F48071116205E01C6103E01D610E
:100B100001E0C3F810E03754401CC0B20528B9D931
:100B2000F0BD062818D2DFE800F0031107130D15F9
:100B3000116A21F0010102E0116A21F01001116235
:100B40000AE029E0116A21F48071F8E75C6103E0B2
:100B50005D6101E0C3F814E00021491C89B20C2951
:100B6000FBD912E0116A41F0010106E0116A41F07F
:100B7000100102E0116A41F48071116205E01C610C
:100B800003E01D6101E0C3F810E03754401CC0B21F
:100B900005287FF66DAFF0BD106A20F001001062ED
:100BA000106A20F010001062106A20F48070106249
:100BB0005C615D61C3F814E006480749001F3D39D8
:100BC0000A68426089880181F0BD0000002C014064
:100BD000000C014004000020090E000803490860D1
:100BE000091D0860091D086070470000342C014091
:100BF0007047000070B52448016821F0070141F0FA
:100C0000020101600068214C206840F480302060BF
:100C10002068C0F340400028FAD0606820F47C10BF
:100C200040F4E8106060206840F080702060206828
:100C3000C0F340600028FAD0606820F0F0006060E7
:100C4000606820F4E06040F480606060606820F4D8
:100C500060506060606820F0030040F00200606057
:100C6000606800F00C000828FAD1094D2846FFF70B
:100C70008BFB2846FFF796FB606820F4404040F469
:100C80000040606070BD0000002002400010024083
:100C900000A24A040D48016841F001010160416869
:100CA0000B4A1140416001680A4A11400160016825
:100CB00021F480210160416821F4FE0141604FF47C
:100CC0001F0181600449C0030860704700100240A2
:100CD0000000FFF8FFFFF6FE08ED00E0FEE702E08F
:100CE00008C8121F08C1002AFAD1704770470020B7
:100CF00001E001C1121F002AFBD1704786B001201C
:100D0000FFF7BEFA2A48C16941F08051C161C0694C
:100D1000284900F08050009008684FF6FF0210400C
:100D2000254A40F44070104308602448416821F08F
:100D3000E0614160416841F000714160FFF75AFF96
:100D400014216846FFF7F5F92020FFF799FA0420EF
:100D5000FFF796FA0820FFF793FA1A4C18484FF459
:100D6000604161610125CDE900050220029000206B
:100D7000039069462046FFF78FFA43F6380000904B
:100D800008200190694604952046FFF785FAFFF791
:100D900019FDFFF73FFDFFF777FC0B48016841F0B5
:100DA00001010160FFF7EEFDFFF7C6FDFCE7000063
:100DB000001002400CED00E00000FA0500000140C8
:100DC000E000E004000C0140002C014000000000A5
:100DD0000000081C3044586C800000000000000037
:100DE00001000001000100000100000000000101FD
:100DF00000000001000001000101000000010000EE
:100E000000000100000000000000000000000001E0
:100E100000000000010001010000000000010000CE
:100E200001000000010100010000010000000100BC
:100E3000000100000000000000081C3044586C80D5
:100E40000000000004040400000800000008000086
:100E5000700E00080000002010000000DE0C0008EA
:100E6000800E00081000002000040000EE0C0008B6
:100E70000000000000000000000000000024F4005A
:04000005080000ED02
:00000001FF
